:1000000000308A0018280000223084008313000882
:10001000031917280230F800F701F70B0D28F80B29
:100020000C289730F700F70B1328800B0A280800DC
:1000300003081F39830083161F149F141F159F1177
:1000400007309C00831381138312860107308316C7
:100050008600831287010030831687001F138312E6
:100060001F139F1783169F1783121F1483161F10C9
:100070009F141F159F15F80083121F08C7397804B5
:100080009F000030F80006389200FF30831692007F
:1000900064308312A20004201F151F194D288316F7
:1000A0001E088312A0001E08A100861D6A282108D0
:1000B000F9002008F800F90CF80CF90CF80CF90C10
:1000C00078089500F90C790C3039F7001708CF390A
:1000D00077049700061E7F282108F9002008F80001
:1000E000F90CF80CF90CF80CF90C78089B00F90CD9
:1000F000790C3039F7001D08CF3977049D000A309C
:10010000A200042006189228861992288601F03051
:1001100097059D0587016430A200042007110C306B
:10012000970086158618A228061AA2288601F030A4
:1001300097059D0587016430A200042087100C30CC
:100140009D0006160619A928F03097059D05870120
:0601500086014C2863004B
:02400E00422F3F
:00000001FF
;PIC16F877A
;CRC=8F46  CREATED="30-гн-16 09:10"
